:020000040800F2
:10000000A0080020550200085D0200085F020008F9
:100010006102000863020008650200080000000099
:10002000000000000000000000000000670200085F
:1000300069020008000000006B0200086D02000861
:100040006F0200086F0200086F0200086F020008CC
:100050006F0200086F0200086F0200086F020008BC
:100060006F0200086F0200086F0200086F020008AC
:100070006F0200086F0200086F0200086F0200089C
:100080006F0200086F0200086F0200086F0200088C
:100090006F0200086F0200086F0200086F0200087C
:1000A0006F0200086F0200086F0200086F0200086C
:1000B0008124000899240008CD2400086F0200085C
:1000C0006F0200086F0200086F0200086F0200084C
:1000D0006F0200086B7600086F020008DD2600083A
:1000E000E76A00086F0200086F0200086F0200084C
:1000F0006F0200086F0200086F0200086F0200081C
:100100006F0200086F020008DF2400086F02000879
:100110006F0200086F0200086F0200086F020008FB
:100120006F0200086F0200086F0200086F020008EB
:10013000DFF810D007F042FF0048004797010008A1
:10014000AFF30080A008002010B501F085FE01F09B
:1001500099FE4FF4165007F031FA4FF4165002F0A2
:1001600063FA002141F61F4001F007FF02F008FB8F
:1001700006F0C4FE02F0F2FB03F03FF803F051F882
:1001800001F0A0FF02F00EF802F076F802F0DCF8C1
:1001900006F08AFE10BDFFF7D7FF4BE02648006847
:1001A000002841D000BF04B13DE00124224801688D
:1001B00022A007F091FF20480068112831D2DFE823
:1001C00000F030090A0B0C10111213141516171831
:1001D00023242F0025E024E023E000201B490870A1
:1001E0001FE01EE01DE01CE01BE01AE019E018E033
:1001F00017E044B116480068192804DA144800686A
:10020000401D134908600CE00BE044B11048006841
:10021000052804DD0E480068401F0D49086000E015
:1002200000BF00BF00BF00E0002407F087F80A20ED
:1002300007F097F9B2E70000D400002050533220B5
:100240004B6579203D202564000000006B010020F3
:10025000BC0000200648804706480047FEE7FEE74E
:10026000FEE7FEE7FEE7FEE7FEE7FEE7FEE7FEE766
:10027000571D00083101000831490143314A11601E
:10028000704770B5002100230F22C47804B32D4CB1
:10029000246804F4E064C4F5E064210AC1F10403B5
:1002A000CA40447804FA03F18478144021430901D8
:1002B000254C0678A155047804F01F050124AC40B4
:1002C00005786D11AD0005F1E025C5F8004109E0A4
:1002D000047804F01F050124AC401C4D067876110B
:1002E00045F8264070BD1A4A0A400243154B1B1FB1
:1002F0001A60704739B1134A121D12680243114B3C
:100300001B1D1A6006E00F4A121D126882430D4B36
:100310001B1D1A607047042808D14FF0E0210969BD
:1003200041F004014FF0E022116107E04FF0E021BD
:10033000096921F004014FF0E022116170470000CB
:100340000000FA050CED00E000E400E080E100E0D0
:1003500080FFFF1F10B50446CC48844208D101211C
:10036000042000F02DFB0021042000F029FB46E0D2
:10037000C748844208D10121082000F021FB002158
:10038000082000F01DFB3AE0C248844208D1012158
:10039000102000F015FB0021102000F011FB2EE0D2
:1003A000BD48844208D10121202000F009FB002132
:1003B000202000F005FB22E0B848844208D101214A
:1003C000402000F0FDFA0021402000F0F9FA16E08C
:1003D000B348844208D10121802000F0F1FA0021C5
:1003E000802000F0EDFA0AE0AE48844207D10121F6
:1003F000801500F0E5FA0021A01500F0E1FA10BD2B
:1004000010B50121084600F0DBFA0021012000F0C0
:10041000D7FA10BD2DE9F041024600250026002044
:1004200000230024002791F803C00CF00F0591F879
:1004300003C00CF0100CBCF1000F03D091F802C007
:100440004CEA050591F800C0BCF1000F31D01468EA
:1004500000202BE04FF0010C0CFA00F3B1F800C0C3
:100460000CEA03069E4220D183004FF00F0C0CFAD9
:1004700003F7BC4305FA03FC4CEA040491F803C0FB
:10048000BCF1280F06D14FF0010C0CFA00FCC2F8A9
:1004900014C00AE091F803C0BCF1480F05D14FF039
:1004A000010C0CFA00FCC2F810C0401C0828D1D383
:1004B0001460B1F800C0BCF1FF0F34DD54680020B7
:1004C0002EE000F1080C4FF0010808FA0CF3B1F827
:1004D00000C00CEA03069E4221D183004FF00F0CAE
:1004E0000CFA03F7BC4305FA03FC4CEA040491F848
:1004F00003C0BCF1280F05D100F1080C08FA0CF874
:10050000C2F8148091F803C0BCF1480F07D100F184
:10051000080C4FF0010808FA0CF8C2F81080401CD3
:100520000828CED35460BDE8F0814FF6FF710180FA
:10053000022181700421C170704702460020936837
:100540000B400BB1012000E0002070470146886895
:1005500080B2704702460020D3680B400BB10120E7
:1005600000E0002070470146C86880B27047016112
:100570007047416170470AB1016100E04161704715
:10058000C16070474FF480320A43826181618261A9
:1005900082698269704702460020434B18684FF613
:1005A0008073184040EA021008433F4B18607047C0
:1005B0003E49C8617047F0B50A4600230024002177
:1005C000002500F00046B6F1004F02D1364EF16929
:1005D00001E0354E7168C0F3034583B200F4401664
:1005E000B6F5401F08D121F070612F4E766826F0D5
:1005F00070662D4F7E6012E000F48016B6F5801F05
:1006000006D1032606FA05F4A14341F0706106E025
:10061000460D360103FA06F6B14341F0706122B18E
:10062000460D360103FA06F6314300F00046B6F1F6
:10063000004F02D11C4EF16101E01B4E7160F0BD14
:1006400030B500228B071C0F0F2303FA04F2164B60
:1006500008338C1053F824309343134C08348D1016
:1006600044F8253023468C1053F824308C07240F8F
:1006700000FA04F423430C4C08348D1044F8253060
:1006800030BD0A49DC3108607047000000080140B5
:10069000000C01400010014000140140001801400E
:1006A000001C0140002001400000014000002042E9
:1006B000DF48006840F00100DD49086008464068F6
:1006C000DC490840DA49486008460068DA490840D1
:1006D000D74908600846006820F480200860084672
:1006E000406820F4FE0048604FF41F0088607047A7
:1006F000CF49096821F48031CD4A1160114609685B
:1007000021F480211160B0F5803F03D0B0F5802F37
:100710000ED106E0C649096841F48031C44A11602F
:1007200007E0C349096841F4A021C14A116000E013
:1007300000BF00BF704710B5014600220023002013
:100740004A11012A02D1BA4C236806E0022A02D1DA
:10075000B74C236A01E0B64C636A01F01F02012422
:1007600094401C400CB1012000E0002010BD38B5C1
:10077000002000900024002500BF3120FFF7DBFFA0
:1007800005460098401C00900098B0F5A06F01D07D
:10079000002DF2D03120FFF7CEFF08B1012400E098
:1007A0000024204638BD01460020A14A106820F0F0
:1007B000F80040EAC10010607047A0490860704727
:1007C000024600209A4B586820F47C1042EA01034C
:1007D0001843974B58607047984908667047014620
:1007E0000020934A506820F003000843506070478F
:1007F0008F48406800F00C007047014600208C4A8A
:10080000506820F0F0000843506070470146002017
:10081000874A506820F4E060084350607047014602
:100820000020834A506820F4605040EAC1005060C4
:10083000704729B17E4A527A02437D4B5A7204E0D6
:100840007B4A527A82437A4B5A7270477B49D8313D
:100850000860704701460020754A506820F4404007
:100860000843506070470021714A20321170704A6D
:1008700082F82010012802D004280AD104E00121C6
:100880006B4A2032117005E00521694A203211704F
:1008900000E000BF00BF70476949086070476449C5
:1008A000096A0143624A1162704765494439086028
:1008B000704730B500210022002400235C4D6D6894
:1008C00005F00C0121B1042905D0082923D105E048
:1008D0005C4D056022E05B4D05601FE0544D6D6886
:1008E00005F47012524D6D6805F48034022505EB55
:1008F00092421CB9544D554305600BE04C4D6D6858
:1009000005F400351DB1504D5543056002E04D4DD5
:100910005543056002E04B4D056000BF00BF444DEC
:100920006D6805F0F0010909484D6B5C0568DD4014
:1009300045603F4D6D6805F4E061090A434D6B5C0D
:100940004568DD4085603A4D6D6805F46051C90A1F
:100950003E4D6B5C4568DD40C560354D6D6805F406
:100960004041890B3A4D6B5CC568B5FBF3F50561F9
:1009700030BD29B12E4A526902432D4B5A6104E021
:100980002B4A526982432A4B5A61704729B1284A3F
:1009900092690243264B9A6104E0254A9269824398
:1009A000234B9A61704729B1214AD2690243204BF7
:1009B000DA6104E01E4AD26982431D4BDA61704756
:1009C00029B11B4AD2680243194BDA6004E0184A85
:1009D000D2688243164BDA60704729B1144A126913
:1009E0000243134B1A6104E0114A12698243104B0F
:1009F0001A61704712494039086070470F49C8644E
:100A000070470B49C87170470948406A40F08070D0
:100A100007494862704701460020054A92680A402B
:100A20000AB1012000E00020704701498872704738
:100A3000001002400000FFF8FFFFF6FE00004242F7
:100A40008004424200127A0000093D00DC000020D0
:100A5000EC00002010B50446FE48844208D1012174
:100A6000C014FFF7ADFF0021E014FFF7A9FFC4E0B9
:100A7000B4F1804F08D101210846FFF7AEFF0021F5
:100A80000120FFF7AAFFB8E0F348844208D1012112
:100A90000220FFF7A2FF00210220FFF79EFFACE03B
:100AA000EE48844208D101210420FFF796FF00217F
:100AB0000420FFF792FFA0E0E948844208D1012119
:100AC0000820FFF78AFF00210820FFF786FF94E047
:100AD000E448844208D101211020FFF77EFF002165
:100AE0001020FFF77AFF88E0DF48844208D1012117
:100AF0002020FFF772FF00212020FFF76EFF7CE02F
:100B0000DA48844208D101214014FFF759FF00213F
:100B10006014FFF755FF70E0D548844209D10121E8
:100B2000C804FFF74DFF00214FF40020FFF748FFF6
:100B300063E0D048844209D101210805FFF740FF56
:100B400000214FF48010FFF73BFF56E0CA48844273
:100B500009D101214805FFF733FF00214FF40010B0
:100B6000FFF72EFF49E0C548844208D1012140200B
:100B7000FFF733FF00214020FFF72FFF3DE0C04883
:100B8000844208D101218020FFF727FF0021802027
:100B9000FFF723FF31E0BB48844208D101218015D3
:100BA000FFF71BFF0021A015FFF717FF25E0B64850
:100BB000844209D101210804FFF702FF00214FF40C
:100BC0008030FFF7FDFE18E0B048844209D10121D2
:100BD0004804FFF7F5FE00214FF40030FFF7F0FE68
:100BE0000BE0AB48844208D101218804FFF7E8FEFE
:100BF00000214FF48020FFF7E3FE10BD00220288A1
:100C0000944B98420ED0994B98420BD0B0F1804F44
:100C100008D0914B984205D0904B984202D0904B0F
:100C2000984204D14FF68F731A404B881A438D4B6C
:100C3000984207D08C4B984204D04FF6FF431A409D
:100C4000CB881A4302808B8883850B880385814B70
:100C500098420BD0854B984208D08B4B984205D0D8
:100C60008A4B984202D08A4B984201D10B7A038674
:100C700001238382704770B5002400220023058C75
:100C80004FF6FE7635400584028C8388048B4FF640
:100C90008F752C40B51E2C400D882C43751E2A40A4
:100CA0000D892A434D882A436A4DA8420BD06F4DC7
:100CB000A84208D0744DA84205D0744DA84202D075
:100CC000734DA84213D14FF6F7752A404D892A4338
:100CD0004FF6FB752A408D882A434FF6FF652B405F
:100CE0004FF6FF552B408D892B43CD892B438380B5
:100CF0000483CD888586028470BD70B500240022EF
:100D00000023058C4FF6EF7635400584028C8388EE
:100D1000048B48F6FF752C404FF6FF452C400D889C
:100D20004FF6FF7606EA05252C434FF6DF752A407D
:100D30000D8906EA05152A434D8806EA05152A435A
:100D4000444DA84202D0494DA8421DD14FF67F75AF
:100D50002A404D894FF6FF7606EA05152A434FF6DD
:100D6000BF752A408D8806EA05152A434FF6FF35E0
:100D70002B404FF2FF752B408D8906EA85052B43EA
:100D8000CD8906EA85052B4383800483CD880587BA
:100D9000028470BD70B5002400220023058C4FF63C
:100DA000FF6635400584028C8388848B4FF68F75EF
:100DB0002C404FF6FC752C400D882C434FF6FF5508
:100DC0002A400D894FF6FF7606EA05252A434D880D
:100DD00006EA05252A431F4DA84202D0234DA8420A
:100DE0001DD14FF2FF752A404D894FF6FF7606EA76
:100DF00005252A434FF6FF352A408D8806EA05254A
:100E00002A434EF6FF752B404DF6FF752B408D891A
:100E100006EA05152B43CD8906EA05152B43838089
:100E20008483CD888587028470BD70B5002200233D
:100E30000024058C4EF6FF7635400584038C8488AB
:100E4000828B48F6FF752A404FF6FF452A400D88F1
:100E500020E00000002C0140000400400008004099
:100E6000000C00400010004000140040003401401D
:100E7000004C014000500140005401400018004067
:100E8000001C0040002000400040014000440140A0
:100E9000004801404FF6FF7606EA05252A434DF645
:100EA000FF752B400D8906EA05352B434D8806EA70
:100EB00005352B43FA4DA84202D0FA4DA84208D17D
:100EC0004BF6FF752C408D894FF6FF7606EA8515A7
:100ED0002C4384808283CD88A0F84050038470BD69
:100EE000828B4FF2FF331A408283828B4FF6FF735F
:100EF00003EA01231A4382837047F0B50C46154676
:100F0000002200210026078C4EF6FF7C07EA0C0722
:100F10000784828B018C4FF6FF7707EA043640F690
:100F2000FF473A404FF6FF7707EA05273A434FF667
:100F3000FF7707EA03373A43D94FB8420ED0D94F6B
:100F4000B8420BD0B0F1804F08D0D74FB84205D08F
:100F5000D64FB84202D0D64FB84206D14DF6FF77F1
:100F6000394046F48057394305E047F6FF5739408A
:100F700044F48057394382830184F0BD828B4FF65D
:100F8000F3731A408283828B0A4382837047F0B5E1
:100F90000C461546002200210026078C4FF6FF6CF8
:100FA00007EA0C070784828B018C4FF6FF7707EA6C
:100FB00004264FF60C773A404FF6FF7707EA0317FF
:100FC0002F433A43B64FB8420ED0B64FB8420BD07B
:100FD000B0F1804F08D0B44FB84205D0B34FB842FB
:100FE00002D0B34FB84206D14FF6FF57394046F40E
:100FF0008077394305E04FF2FF57394044F480775A
:10100000394382830184F0BD028B4FF2FF331A40D3
:101010000283028B4FF6FF7303EA01231A43028314
:101020007047F0B50C461546002200210026078CBB
:101030004FF6EF7C07EA0C070784028B018C4FF612
:10104000FF7707EA041640F6FF473A404FF6FF776E
:1010500007EA03373A434FF6FF7707EA05273A4393
:101060008F4FB8420ED08F4FB8420BD0B0F1804FA7
:1010700008D08D4FB84205D08C4FB84202D08C4F6B
:10108000B84206D14FF6DF77394046F010073943B2
:1010900005E04FF65F77394044F01007394302838B
:1010A0000184F0BD028B4FF6F3731A400283028B6A
:1010B0000A4302837047F0B50C4615460022002112
:1010C000068C4FF6FE773E400684028B018C4FF66D
:1010D0000C7632407E1C06EA03162E433243704ED5
:1010E000B0420ED06F4EB0420BD0B0F1804F08D05E
:1010F0006D4EB04205D06D4EB04202D06C4EB04243
:1011000006D14FF6FD76314044F00106314305E04B
:101110004FF6F576314044F00106314302830184F5
:10112000F0BD70B505460C465D4885420ED05D4861
:1011300085420BD0B5F1804F08D05B48854205D081
:101140005A48854202D05A48854200D100E000BF8B
:10115000208850B92389A28861882846FFF7ABFF11
:10116000E1882846FFF79EFF25E0208804280AD161
:101170002389A28861882846FFF753FFE188284623
:10118000FFF742FF17E0208808280AD12389A288A8
:1011900061882846FFF7FBFEE1882846FFF7EEFE50
:1011A00009E02389A28861882846FFF7A6FEE18826
:1011B0002846FFF795FE70BD2DE9F04105460C4627
:1011C00000260127608808B9022600E00026A088D2
:1011D000012801D1022700E001272088A0B9238936
:1011E000A28861882846FFF766FFE1882846FFF756
:1011F00059FF23893A4631462846FFF712FFE18816
:101200002846FFF701FF13E02389A288618828465A
:10121000FFF707FFE1882846FFF7F6FE23893A46E5
:1012200031462846FFF747FFE1882846FFF73AFF97
:10123000BDE8F0810A884B881A438B881A43CB8813
:101240001A430B891A434B891A438B891A43A0F816
:10125000442070474FF6FF71818000210180C180DA
:101260004180017270470021018041808180C180EE
:10127000018141818181C1817047002101804180CC
:10128000012181800021C1800181704700210180FE
:1012900041808180C180018141818181704700004E
:1012A000002C0140003401400004004000080040D0
:1012B000000C004021B1028842F00102028004E0EB
:1012C00002884FF6FE731A400280704731B1B0F8C1
:1012D000442042F40042A0F8442005E0B0F8442045
:1012E000C2F30E02A0F8442070471AB183890B4361
:1012F000838102E083898B438381704781827047B9
:1013000041EA0203A0F8483070471AB183890B43C1
:10131000838102E083898B438381704701894FF683
:10132000F8721140018170470A46002101894FF689
:101330008F73194011430181704730B504460D4643
:1013400029462046FFF7F0FF208940F00700208162
:1013500030BD2DE9F04104460D4616461F46602D6E
:1013600006D13B46012231462046FFF75AFE05E0F2
:101370003B46012231462046FFF79DFE2946204686
:10138000FFF7D2FF208940F007002081BDE8F081FF
:1013900030B50C4600210189C9B24FF6FF7505EA48
:1013A0000325154325432943018130BD2DE9F04133
:1013B00005460E4617469846002443463A463146AF
:1013C0002846FFF7E5FF2C894FF6F870044044F0FB
:1013D00007044FF68F70044044F070042C81BDE880
:1013E000F081F0B504460D4616461F463B46324690
:1013F00029462046FFF7CCFF208940F48040208119
:10140000F0BD0185828270470A46002101884FF6AF
:101410008F731940114301807047F0B50C46154693
:101420001E460021002200230189028B038C4FF607
:10143000F877394021434FF6FC473A4040F2011714
:101440003A434FF6DD773B404FF6FF7707EA061742
:101450002F433B43018102830384F0BD0A460021F0
:10146000018B4FF68F7319401143018370470A4671
:101470000021018B48F6FF7319404FF6FF7303EA12
:1014800002231943018370470A460021818B4FF6DE
:101490008F7319401143818370470A460021818B65
:1014A00048F6FF7319404FF6FF7303EA022319430E
:1014B0008183704721B1028842F08002028004E0FB
:1014C00002884FF67F731A400280704721B18288EC
:1014D00042F00402828004E082884FF6FB731A40D7
:1014E0008280704721B1828842F00802828004E045
:1014F00082884FF6F7731A408280704721B1828844
:1015000042F00102828004E082884FF6FE731A40A6
:10151000828070470A460021018B4FF6F77319400D
:101520001143018370470A460021018B4FF2FF737C
:1015300019404FF6FF7303EA0223194301837047F2
:101540000A460021818B4FF6F773194011438183BE
:1015500070470A460021818B4FF2FF7319404FF606
:10156000FF7303EA02231943818370470A4600216F
:10157000018B4FF6FB7319401143018370470A46F4
:101580000021018B4FF6FF3319404FF6FF7303EA3A
:1015900002231943018370470A460021818B4FF6CD
:1015A000FB7319401143818370470A460021818BE8
:1015B0004FF6FF3319404FF6FF7303EA0223194336
:1015C000818370470A460021018B4FF67F731940D3
:1015D0001143018370470A460021018BC1F30E01BC
:1015E0004FF6FF7303EA02231943018370470A464B
:1015F0000021818B4FF67F7319401143818370471F
:101600000A460021818BC1F30E014FF6FF7303EAF6
:1016100002231943818370470A460021018C4FF64B
:10162000FD7319401143018470470A460021018C63
:101630004FF6F77319401143018470470A460021A1
:10164000018C4FF6DF7319404FF6FF7303EA021364
:101650001943018470470A460021018C4FF67F73BD
:1016600019404FF6FF7303EA0213194301847047D0
:101670000A460021018C4FF6FF5319404FF6FF73C5
:1016800003EA02231943018470470A460021018CB2
:101690004FF2FF7319404FF6FF7303EA0223194319
:1016A000018470470A460021018C4DF6FF731940F2
:1016B0004FF6FF7303EA023319430184704730B5D4
:1016C000002301248C40A3B2048C9C430484048C2A
:1016D00002FA01F5ADB22C43048430BD30B50023CD
:1016E00004248C40A3B2048C9C430484048C02FA2E
:1016F00001F5ADB22C43048430BD70B50346002023
:1017000000241846183001258D40ACB21D8CA5432D
:101710001D8409B1082909D100EB6100056825F095
:10172000700505600568154305600EE00D1FC5F3E3
:101730004E052844056825F4E045056005684FF628
:10174000FF7606EA02263543056070BD21B10288A6
:1017500042F00202028004E002884FF6FD731A4054
:101760000280704721B1028842F00402028004E046
:1017700002884FF6FB731A400280704721B18288BD
:1017800042F08002828004E082884FF67F731A4024
:101790008280704702884FF6F7731A4002800288F1
:1017A0000A430280704782884FF68F731A40828006
:1017B00082880A438280704702894FF6F8731A4084
:1017C000028102890A430281704702894FF67F73C2
:1017D0001A40028102890A4302817047818470475E
:1017E0008185704781867047018770478187704780
:1017F000A0F84010704702884FF6FF431A4002805D
:1018000002880A43028070470146888E704701466D
:10181000088F70470146888F70470146B1F8400035
:1018200070470146888C70470146088D7047024614
:101830000020138A0B400BB1012000E0002070470C
:10184000CA430282704730B50246002000230024BC
:10185000158A05EA0103958905EA010413B10CB163
:10186000012000E0002030BDCA4302827047000022
:1018700010B50446FB48844209D101218803FFF7D3
:101880009FF800214FF48040FFF79AF832E0F648C5
:10189000844209D101214804FFF79FF800214FF449
:1018A0000030FFF79AF825E0F048844209D1012181
:1018B0008804FFF792F800214FF48020FFF78DF89D
:1018C00018E0EB48844209D10121C804FFF785F8EC
:1018D00000214FF40020FFF780F80BE0E548844238
:1018E00008D101210805FFF778F800214FF4801096
:1018F000FFF773F810BD2DE9F04786B005460E4698
:101900000024A24600BFA1460027B08900B100BF55
:101910002F462C8A4CF6FF700440F08804432C823A
:10192000AC894EF6F3100440B088318908437189C0
:1019300008430443AC81AC8A4FF6FF400440B089B1
:101940000443AC8201A8FEF7B4FFC648874202D127
:10195000DDF810A001E0DDF80CA0A88900F400403B
:1019600040B10AEBCA0000EB0A1031684900B0FB35
:10197000F1F807E00AEBCA0000EB0A1031688900B1
:10198000B0FBF1F86420B8FBF0F0040120096421F9
:1019900001FB1089A88900F4004040B1322000EB1F
:1019A000C900B0FBF1F000F00700044308E032206A
:1019B00000EB09106421B0FBF1F000F00F000443CC
:1019C0002C8106B0BDE8F0874FF41651016000216C
:1019D0008180C18001810C2141810021818170477A
:1019E00010B502460020108A4FF2FF0318400B8802
:1019F0004C8823438C882343CC882343184310828C
:101A000010BD0021018041808180C180704721B1DB
:101A1000828942F40052828104E082894DF6FF738C
:101A20001A4082817047F0B5034600240026002545
:101A3000002040F66A17B94200D100BF1846C1F332
:101A4000421401F01F06012707FA06F5012C01D107
:101A50000C3004E0022C01D1103000E014301AB137
:101A600007682F43076002E00768AF430760F0BDD7
:101A70001AB1838A0B43838202E0838A8B43838279
:101A80007047028A4FF6F0731A400282028A0A43B4
:101A90000282704782894FF2FF731A4082818289E5
:101AA0000A438281704721B1828942F00202828119
:101AB00004E082894FF6FD731A4082817047028AE2
:101AC0004FF6DF731A400282028A0A43028270478D
:101AD00021B1028A42F48042028204E0028A4BF67B
:101AE000FF731A4002827047C1F308028280704778
:101AF00001468888C0F308007047818941F00101E0
:101B000081817047028BD2B20283028B42EA0122AA
:101B100002837047028B02F47F420283028B0A43E6
:101B20000283704721B1828A42F02002828204E05F
:101B3000828A4FF6DF731A408282704721B1828A0F
:101B400042F01002828204E0828A4FF6EF731A405C
:101B50008282704721B1828A42F00802828204E0C8
:101B6000828A4FF6F7731A408282704721B18289C8
:101B700042F40042828103E08289C2F30E02828134
:101B8000704721B1828A42F40062828204E0828A34
:101B90004FF2FF731A4082827047828A4FF6FB73BE
:101BA0001A408282828A0A438282704721B1828AE5
:101BB00042F00202828204E0828A4FF6FD731A40EC
:101BC0008282704702460020B1F5007F00D100BF3D
:101BD00013880B400BB1012000E00020704701F496
:101BE0000072B2F5007F00D100BFCA430280704787
:101BF00070B50246002400230025002040F66A1636
:101C0000B14200D100BFC1F3421501F01F0301260C
:101C100006FA03F3012D02D19689334006E0022D26
:101C200002D1168A334001E0968A33400C12012615
:101C300006FA04F41688344013B10CB1012000E018
:101C4000002070BD10B50022002340F66A14A142A6
:101C500000D100BF0A1201249440A3B2DC430480E7
:101C600010BD000000380140004400400048004022
:101C7000004C0040005000400CB500200190009046
:101C80006C48006840F480306A49086000BF6948C9
:101C9000006800F4003000900198401C019000980A
:101CA00018B90198B0F5A06FF1D16248006800F44E
:101CB000003010B10120009001E000200090009859
:101CC000012843D15C48006840F010005A49086080
:101CD0000846006820F0030008600846006840F0ED
:101CE000020008605348406852494860084640680E
:101CF00048600846406840F4806048600846406894
:101D000020F47C1048600846406840F4E8104860C1
:101D10000846006840F08070086000BF45480068D1
:101D200000F000700028F9D04248406820F003001D
:101D3000404948600846406840F00200486000BFE3
:101D40003C48406800F00C000828F9D10CBD10B5E3
:101D5000FFF792FF10BD10B53648006840F0010053
:101D600034490860084640683449084031494860B1
:101D700008460068324908402E4908600846006855
:101D800020F4802008600846406820F4FE00486087
:101D90004FF41F008860FFF7DAFF4FF00060294919
:101DA000086010BD10B5002100200022214B5B68A7
:101DB00003F00C0121B1042906D0082928D107E03D
:101DC000214B224C236027E01F4B204C236023E053
:101DD000184B5B6803F47010164B5B6803F4803299
:101DE000022303EB904022B9194B4343174C236065
:101DF0000DE0104B5B6803F4003323B1144B4343F5
:101E0000124C236003E0104B4343104C236003E06B
:101E10000D4B0E4C236000BF00BF064B5B68C3F345
:101E200003130C4CE15C094B1B68CB40074C23604F
:101E300010BD000000100240002002400000FFF82A
:101E4000FFFFF6FE08ED00E000127A00F00000202F
:101E500000093D00F400002008B501211020FEF724
:101E600095FD4FF40050ADF8000010208DF80300F0
:101E700003208DF8020069460148FEF7CBFA08BD41
:101E80000010014008B501210820FEF77FFD4FF446
:101E90008050ADF8000048208DF8030069460248E4
:101EA000FEF7B8FA08BD0000000C014008B501219A
:101EB0000420FEF76BFD01210820FEF767FD0121DC
:101EC0001020FEF763FD01212020FEF75FFD0121B8
:101ED0000846FEF75BFD01216F48FEF76CFB4820CA
:101EE0008DF803004FF48050ADF8000069466B4850
:101EF000FEF790FA10208DF8030003208DF8020001
:101F00003320ADF8000069466548FEF783FA41F2D8
:101F10003000ADF8000069466248FEF77BFA042005
:101F2000ADF8000069466048FEF774FA00205F498A
:101F300008605F49C1F890015C49203908605D493B
:101F400008605D4908605B491431086057491C39D5
:101F500008605749C1F8840100215848FFF746FC42
:101F600000215648FFF744FC00215448FFF73AFC93
:101F700000215248FFF738FC08BD70B505460C46F5
:101F8000FFF794FF01214803FEF700FD0121102017
:101F9000FEF7FCFC4A48806940F4005048498861DB
:101FA0000846806940F0100088613E48406820F093
:101FB000FF003C4948600846406840F0BB0048606C
:101FC0000846006820F07F4008600846006840F03E
:101FD0003B40086039482C300580001F048037489A
:101FE0001830008840F060003449183108800846F5
:101FF000008840F4C0400880081D008840F0600060
:10200000091D08800846008840F4C0400880081F69
:10201000008840F00800091F08800846008840F446
:1020200000600880081D008840F00800091D088035
:102030000846008840F400600880081D008840F0D1
:102040000100091D08800846008840F01000088043
:102050000846008840F4807008800846008840F4F4
:10206000805008800020154934310880091D0880FF
:10207000091D0880091D0880081D008840F40040E3
:10208000091D08804FF400400C490880084600886C
:1020900040F00100088070BD0002300000080140DF
:1020A000000C01400010014000140140B001224228
:1020B00000802142808121428881224200340140F7
:1020C0000010024010B5FA48406840F48070F849AA
:1020D0004860F848C06940F00100F649C861084608
:1020E000806940F0040088610846806940F008007B
:1020F0008861F148006820F07040EF4908600846A8
:10210000006840F080400860EC48006820F47040AF
:10211000EA4908600846006840F4804008604FF0D3
:102120008040808940F001004FF08041888108465E
:10213000808940F04000888101231C220321184639
:1021400005F038F900204FF0804108854FF6FF7008
:1021500088850846008820F440700880084600887A
:1021600020F0600008800846008B40F001000883E2
:102170000846008B40F4807008830846008C20F0ED
:10218000020008840846008C20F0200008840846DD
:10219000008940F0030008810846008840F00100F3
:1021A000088010BD10B5C348C06940F00200C149A5
:1021B000C8610846806940F008008861BE48001F79
:1021C000006820F07F40BC49091F0860084600688D
:1021D00040F088400860BA48008840F00100B849E3
:1021E00008800846008840F04000088001231D2236
:1021F0000321184605F0DEF80020B1491C310880A3
:102200004FF6FF70091D0880AD480C38008820F497
:102210004070AB490C3908800846008820F0600007
:102220000880A7480C30008840F00100A4490C3118
:1022300008800846008840F480700880A048143068
:10224000008820F002009E4914310880084600886A
:1022500020F0200008809A48001F008840F003000A
:102260009749091F088096480C38008840F0010003
:1022700093490C39088010BD10B58E48C06940F0F4
:1022800004008C49C8610846806940F008008861F4
:102290008A48006820F07F40884908600846006846
:1022A00040F0884008608748008840F00100854978
:1022B00008800846008840F04000088001231E2264
:1022C0000321184605F076F800207E491C3108806D
:1022D0004FF6FF70091D08807A480C38008820F4FA
:1022E000407078490C3908800846008820F060006A
:1022F000088074480C30008840F0010071490C31AE
:1023000008800846008840F4807008806D481430CA
:10231000008820F002006B491431088008460088CC
:1023200020F0200008806748001F008840F003006C
:102330006449091F088063480C38008840F0010098
:1023400060490C39088010BD10B55A48C06940F08A
:1023500008005849C8610846806940F00400886157
:102360005548001F006820F0FF005349091F08600E
:102370000846006840F0440008605348008840F078
:102380000100514908800846008840F0400008805C
:10239000012332220321184605F00CF800204A4997
:1023A0001C3108804FF6FF70091D088046480C3824
:1023B000008820F4407044490C39088008460088A1
:1023C00020F06000088040480C30008840F0010098
:1023D0003D490C3108800846008840F48070088030
:1023E00039481430008820F0020037491431088041
:1023F0000846008820F0200008803348001F00882D
:1024000040F003003049091F08802F480C3800882D
:1024100040F001002C490C39088010BD014602290A
:1024200006D003290DD0042914D0052924D11AE09F
:102430004FF08042928C10B200224FF080439A8479
:102440001CE01F4A1832128810B200221C4B1833AD
:102450001A8013E01B4A1832128810B20022194B5E
:1024600018331A800AE0184A1832128810B2002273
:10247000154B18331A8001E0002000BF00BF7047E1
:102480004FF08040008A4FF08040008A20F0010029
:102490004FF08041088270470948001D00880848B5
:1024A000001D008820F001000549091D08807047C3
:1024B000000001400010024004080140000C0140EF
:1024C0000C0400400C0800400C0C00400848008838
:1024D0000748008820F0010005490880704705483A
:1024E00000880448008820F00100024908807047F5
:1024F00010080040100C004010B5082006F0A8FAA3
:102500007E490860082006F0A3FA7C490968086043
:102510007A48006800687949096848607748006827
:10252000006810B976A005F0D7FD0020734909684E
:102530000968486010BD70B50546794800680A28EA
:1025400003DB78A005F0C8FD70BD082006F080FA16
:102550000446257069480068006860606748006844
:1025600004606F480068401C6D49086000BF00BFF0
:10257000EAE710B5614800680468604800680068D0
:102580005E4909684968884204D16DA005F0A4FD40
:10259000002010BD00E06468584960680968496817
:1025A0008842F8D10020606054490968486806F004
:1025B00027FA52480068446059480068401E58494C
:1025C00008602078E5E74D48006840684B49096895
:1025D0000968884201D1002070470120FCE710B54E
:1025E00046480068046804E021785BA005F074FDAB
:1025F000646860680028F7D14948016858A005F070
:102600006BFD10BD10B5044621465A48FFF76CFA21
:1026100000BF40215748FFF7D5FA0128F9D14021E2
:102620005448FFF7DCFA10BD10B586B0044601210E
:102630001020FEF7ABF901218804FEF7B4F901215F
:102640004D48FDF7B8FF4FF48060ADF8140003204B
:102650008DF8160018208DF8170005A94748FDF7DA
:10266000D9FE4FF40060ADF8140004208DF8170077
:1026700005A94248FDF7CEFE01940020ADF8080000
:10268000ADF80A00ADF80C00ADF810000C20ADF864
:102690000E0001A93748FFF72EF940213548FFF712
:1026A0009EFA012240F225513248FFF7BCF9012180
:1026B0003048FFF7ACF927208DF8000002208DF894
:1026C000010003208DF8020001208DF80300684608
:1026D000FDF7D7FDFFF710FF06B010BD10B540F2B3
:1026E00025512448FFF784FA30B12248FFF700FA59
:1026F000C4B22046FFF71FFF10BD000008010020F4
:10270000457220303030313A20496E69742071753D
:10271000657565206572726F72210D0A00000000F8
:1027200004010020457220303030323A2051756566
:102730007565206F766572666C6F77210D0A0000F3
:10274000457220303030323A20517565756520650C
:102750006D707479210D0A0025632C2000000000A3
:1027600051756575652073697A65202564200D0AA9
:10277000000000000048004010001400001001405C
:102780006D48806940F004006B4988616B480068BF
:1027900020F47000694908606748806940F400705F
:1027A000654988610846C06840F40070C860084602
:1027B000C06820F40070C8600846406820F44040BB
:1027C00048600846406840F4004048605C48006843
:1027D0005C4908405A490860084600680860084695
:1027E000006820F480700860081D006820F0020076
:1027F000091D08600846006820F46020086008464B
:10280000006840F4602008600846006840F48010CA
:1028100008600846006820F40060086048482830D6
:10282000006820F4700046492831086008460068B6
:102830000020086042480C30006820F470004049D5
:102840000C3108600846006840F4603008603C487D
:10285000001D006840F001003949091D0860084664
:10286000006840F00800086000BF3548001D00689F
:1028700000F008000028F8D13148001D006840F041
:1028800004002F49091D086000BF2D48001D006885
:1028900000F004000028F8D1704701462848303085
:1028A000006820F01F00264A303210601046006891
:1028B000084310602248001D006840F48000204A50
:1028C000121D106000BF1E48001F006800F00200CB
:1028D0000028F8D01A484830006880B270472DE9C7
:1028E000F04F87B00520FFF7D8FF019005F08EF973
:1028F00080464FF06632144B05F099F80022134BD6
:10290000CDE9020105F093F80022114BCDE9040155
:1029100005F08DF8064600220E4B05F0FAF8044645
:1029200000220D4B05F0F5F8824605F0A9F9069056
:10293000069807B0BDE8F08F001002400008014083
:1029400004240140FFFFF00066660A4000002640B4
:10295000000059400000F03F0000B040F748806997
:1029600040F00800F5498861F548006820F47F4090
:10297000F34908600846006840F44C50086070470E
:1029800010B5EF48006820F47040ED490860084633
:10299000006840F4405008600120EA490860EA48B5
:1029A000D0F82C0108B9002010BD0120E549091F0D
:1029B000086004F0BBFD0020E349C1F8AC01E14828
:1029C0008038006808B10020EEE7012004F0AEFD79
:1029D0000020DC49091F08600120E5E710B5D84850
:1029E000006820F47040D64908600846006840F44A
:1029F000405008600020D349091F0860D249C1F83F
:102A0000AC01012004F092FD0120CE49091F0860AD
:102A1000CD49C1F8AC0104F089FD10BD10B500240A
:102A2000C748006820F47040C5490860084600683F
:102A300040F4004008600120C249086004F076FDBF
:102A40000120C149C1F8A80104F070FD0AE0601C32
:102A5000C4B2322C03DDFFF7C1FF002010BD0120FE
:102A600004F064FDB748803800680028EFD1B5490C
:102A7000091F08600120F1E710B50020B149091FC6
:102A80000860AF48006820F47040AD49086008460F
:102A9000006840F4405008600020AB49C1F8AC0128
:102AA000012004F043FD0120A649091F086004F03D
:102AB0003DFD0020A449C1F8A80110BD10B50020BB
:102AC000A049091F08609E48006820F470409C4996
:102AD00008600846006840F44050086001209A49A8
:102AE000C1F8AC0104F022FD01209649091F0860DD
:102AF00004F01CFD00209449C1F8A80110BD70B578
:102B000004468F48006820F470408D4908600846EC
:102B1000006840F44050086000208A49091F08609E
:102B2000002516E0E009874908606006040E0120D0
:102B300004F0FCFC01208449C1F8A80104F0F6FC73
:102B400000208049091F0860012004F0EFFC681C88
:102B5000C5B2082DE6DB70BD2DE9F04105460E46F5
:102B600017469846FFF70CFF10B90120BDE8F08129
:102B70006906080EFFF7C3FFFFF750FF18B9FFF70C
:102B80002DFF0120F2E73046FFF7B9FFFFF746FFC0
:102B900000240BE018F80400FFF7B1FFFFF73EFF39
:102BA00018B9FFF71BFF0020E0E7641CBC42F1DB13
:102BB000FFF714FF0020D9E770B5054600246048F0
:102BC000006820F470405E4908600846006840F4E0
:102BD00000400860002617E000205A49091F0860DD
:102BE000022004F0A3FC01205749C1F8A8016006A7
:102BF000040E54488038006808B1601CC4B202203A
:102C000004F094FC701CC6B2082EE5DB15B1FFF78A
:102C100033FF01E0FFF752FF204670BD2DE9F04180
:102C200006460F4614461D46FFF7AAFE10B90120BE
:102C3000BDE8F0817106080EFFF761FFFFF7EEFEB9
:102C400018B9FFF7CBFE0120F2E73846FFF757FF30
:102C5000FFF7E4FEFFF794FE012101EB4601C8B245
:102C6000FFF74DFFFFF7DAFE0DE0012C04D1002045
:102C7000FFF7A2FF287003E00120FFF79DFF2870F7
:102C80006D1C601EC4B2002CEFD1FFF7A7FE002020
:102C9000CEE770B505460E460024FFF771FE2846C4
:102CA000FFF72DFF641CFFF7B9FE3046FFF727FF43
:102CB000641CFFF7B3FEFFF763FE691CC8B2FFF7A1
:102CC0001EFF641CFFF7AAFE0020FFF775FF0446F5
:102CD000FFF784FE204670BD2DE9F0410746884687
:102CE00015461E460024FFF74BFE3846FFF707FF48
:102CF000FFF794FE4046FFF702FFFFF78FFEFFF756
:102D00003FFE791CC8B2FFF7FAFEFFF787FE00BF4F
:102D10000DE0681EA04204D00120FFF74DFF3055A2
:102D200003E00020FFF748FF3055601CC4B2AC42FE
:102D3000EFDBFFF753FE2046BDE8F08100100240B4
:102D4000040C0140AC812142008021422DE9F04178
:102D500080460D4616461F460024FFF711FE4046EA
:102D6000FFF7CDFEFFF75AFE2846FFF7C8FEFFF734
:102D700055FE00BF06E0385DFFF7C1FEFFF74EFECF
:102D8000601CC4B2B442F6DBFFF728FE0120BDE8A8
:102D9000F08170B505460E46144631462846FFF7C9
:102DA00078FF2070012070BD37B504460D4602AB98
:102DB000012229462046FFF7C9FF3EBD2DE9F84311
:102DC0000746884614461D46089E6A4641463846D0
:102DD000FFF7DFFF28B3601CFF2101FA00F0C4F108
:102DE00008012944491EFF220A41104300F0FF094F
:102DF000C5F1080006FA00F0C6B2C4F107000641AA
:102E00009DF8000000EA090000909DF800003043A2
:102E100000909DF8002041463846FFF7C5FFBDE809
:102E2000F8830020FBE7F8B506460F4614461D461A
:102E30006A4639463046FFF7ACFF2DB10120A0406D
:102E40009DF80010084305E00120A0409DF8001007
:102E500021EA0000C0B200909DF8002039463046BB
:102E6000FFF7A2FFF8BD0000014691F90020002AFB
:102E700001DD00201EE091F90020002A01DA042083
:102E800018E091F90120002A01DD012012E091F9FA
:102E90000120002A01DA05200CE091F90220002A25
:102EA00001DD022006E091F90220002A01DA062065
:102EB00000E00720704770B505462846FFF7D4FFAD
:102EC0000446E81CFFF7D0FF44EAC00084B2A81D06
:102ED000FFF7CAFF44EA801084B2204670BD70B587
:102EE00088B002A905A802F00BF90446072C3FD1CF
:102EF00001A801F07BFB059804F07AFE06460199D3
:102F000004F07EFC054604F08EFE0590069804F061
:102F10006FFE0646019904F073FC054604F083FE3B
:102F20000690079804F064FE0646019904F068FCD8
:102F3000054604F078FE079005A802F0F2FB68460B
:102F400001F071FBBDF80010029848430290BDF8F3
:102F50000010039848430390BDF8001004984843BC
:102F6000049002A802F070FCFEA005F0B5F800BFC6
:102F700008B070BD2DE9F04304460D46DDE9076752
:102F80000021012041E0DFF800C43CF81080A0F1EE
:102F9000010CDFF8F49329F81C8009F1160C3CF8B9
:102FA0001090A0F1010CDFF8E08308F1160828F872
:102FB0001C9008F1160C3CF81090A0F1010C08F1DF
:102FC000160828F81C9008F1160C3CF81090A0F197
:102FD000010C08F1160828F81C9008F1160C3CF8B2
:102FE0001090A0F1010C08F1160828F81C9008F1C7
:102FF000160C3CF81090A0F1010C08F1160828F806
:103000001C9000F1010C0CF0FF000A28BBDBDFF87C
:1030100078C3ACF81240ACF82850ACF83E20ACF8BD
:103020005430ACF86A60ACF880700021002008E0F1
:10303000DFF854C33CF910C0614400F1010C0CF0FE
:10304000FF000A28F4DB4FF00A0C91FBFCFC0FFA9E
:103050008CFCDFF83483A8F814C0002100200AE0BB
:10306000DFF824C30CF1160C3CF910C0614400F1E8
:10307000010C0CF0FF000A28F2DB4FF00A0C91FB68
:10308000FCFC0FFA8CF8DFF800C3ACF82A800021B2
:1030900000200AE0DFF8F0C20CF12C0C3CF910C063
:1030A000614400F1010C0CF0FF000A28F2DB4FF044
:1030B0000A0C91FBFCFC0FFA8CF8DFF8CCC2ACF8E0
:1030C0004080002100200AE0DFF8BCC20CF1420C75
:1030D0003CF910C0614400F1010C0CF0FF000A281B
:1030E000F2DB4FF00A0C91FBFCFC0FFA8CF8DFF8D6
:1030F00098C2ACF85680002100200AE0DFF888C2B0
:103100000CF1580C3CF910C0614400F1010C0CF0BA
:10311000FF000A28F2DB4FF00A0C91FBFCFC0FFACF
:103120008CF8DFF864C2ACF86C80002100200AE063
:10313000DFF854C20CF16E0C3CF910C0614400F190
:10314000010C0CF0FF000A28F2DB4FF00A0C91FB97
:10315000FCFC0FFA8CF8DFF830C2ACF88280BDE8D6
:10316000F08338B50446032302226B21D02000945B
:10317000FFF724FE38BD38B50446022304221B2184
:10318000D0200094FFF71AFE38BD38B5044602235C
:1031900004221C21D0200094FFF710FE38BD10B58A
:1031A0000446234606226B21D020FFF73CFE10BDCB
:1031B00010B5764B01227521D020FFF78DFD7348A5
:1031C000007810BD10B5FFF7F3FF682801D101208A
:1031D00010BD0020FCE710B50446234605226A21F5
:1031E000D020FFF720FE10BD10B504462346012273
:1031F0003721D020FFF717FE10BD10B50220FFF7D2
:10320000B0FF0320FFF7B7FF0020FFF7BEFF00204D
:10321000FFF7C5FF0020FFF7DEFF0020FFF7E4FF08
:1032200010BD38B5002000906B4601227521682042
:10323000FFF7F4FC56A004F04FFF9DF8000068284B
:103240000ED000BF5B48006800F4E0605A490843B4
:10325000001D58490860BFF34F8F00BF00BFFEE755
:1032600000F0D1FE00283CD1782000F034FB10B9EA
:1032700047A004F031FF782000F014FD10B94FA0F2
:1032800004F02AFFC82000F0EEFD10B955A004F0AC
:1032900023FF02F0ABF910B95CA004F01DFF6848F1
:1032A000FFF709FE044602F0ABF910B965A004F07F
:1032B00013FF40F2731002F0E4FD10B96BA004F0AC
:1032C0000BFFC82002F056FB10B972A004F004FFF7
:1032D000FFF705FE012001F0CEFE10B976A004F044
:1032E000FBFE38BD2DE9F04F8FB00CA87B490DAB2C
:1032F00008AACDE900107A497A4802F021FF774800
:10330000008800F4807000282AD0089804F070FC2F
:1033100004464FF09D4104F0A5FA734908600998EE
:1033200004F066FC04464FF09D4104F09BFA6F499F
:1033300008600A9804F05CFC04464FF09D4104F0DC
:1033400091FA6B4908600B9804F052FC04464FF068
:103350009D4104F087FA6749086063480168CBE043
:10336000A5E1000073657474696E6720626961731A
:103370002073756363657366756C6C79202E2E2ED1
:103380002E2E2E0D0A000000FE010020F00100206C
:103390006D70755F7365745F73656E736F722063B4
:1033A0006F6D706C657465202E2E2E2E2E2E0D0ADC
:1033B000000000000CED00E00000FA056D70755F84
:1033C000636F6E6669677572655F6669666F2063B5
:1033D0006F6D706C657465202E2E2E2E2E2E0D0AAC
:1033E000000000006D70755F7365745F73616D70D0
:1033F0006C655F7261746520636F6D706C65746578
:10340000202E2E2E2E2E2E0D0A000000646D705FD1
:103410006C6F61645F6D6F74696F6E5F6472697603
:1034200065725F6669726D7761726520636F6D703A
:103430006C657465202E2E2E2E2E2E0D0A00000097
:103440002C010020646D705F7365745F6F72696535
:103450006E746174696F6E20636F6D706C657465F6
:10346000202E2E2E2E2E2E0D0A000000646D705F71
:10347000656E61626C655F66656174757265206317
:103480006F6D706C657465202E2E2E2E2E2E0D0AFB
:1034900000000000646D705F7365745F6669666F3D
:1034A0005F7261746520636F6D706C657465202E4A
:1034B0002E2E2E2E2E0D0A006D70755F7365745FB3
:1034C000646D705F737461746520636F6D706C659B
:1034D0007465202E2E2E2E2E2E0D0A00180100208F
:1034E000120100200C0100201C01002020010020FE
:1034F00024010020280100204FF0804004F080F9D2
:10350000069088480168069804F07AF98246864851
:1035100001684FF0404004F073F906908348016859
:10352000069804F06DF98346514604F011F90790AE
:1035300004F0C5FB064604F04DFF80464FF06632AE
:103540007B4B04F074FA044604F0CCFB7949086024
:10355000744801684FF0804004F052F903907148BC
:103560000168039804F04CF982466F4801684FF0F7
:10357000404004F045F903906B480168039804F05B
:103580003FF98346514604F035F981464FF07E51AC
:1035900004F0DEF8044604F092FBCDE9040166482D
:1035A00001684FF0804004F02BF983465E480168C3
:1035B000584604F025F981465A4801684FF080408A
:1035C00004F01EF9834659480168584604F018F97A
:1035D0008246494604F0BCF8044604F070FB0746F6
:1035E000DDE9042305F03EF94FF06632504BCDE99A
:1035F000060104F01CFA054604F074FB4F4908600C
:103600004A480168006804F0FBF8039045480168E7
:10361000006804F0F5F8029043480168006804F07F
:10362000EFF8834644480168006804F0E9F8594619
:10363000019004F08DF88246029904F0DBF881468F
:10364000039904F0D7F8044604F039FBCDE90401EE
:10365000364801683848006804F0D2F8824631489C
:1036600001683148006804F0CBF88346514604F005
:103670006FF881464FF0804104F0C2F8044604F030
:103680001EFB0746DDE9042305F0ECF84FF0663237
:10369000274BCDE9060104F0CAF9054604F022FBE8
:1036A000274908602748B0F90400274908600FB08F
:1036B000BDE8F08F2DE9F05F4221D020FFF7E9FA55
:1036C00005464121D020FFF7E4FA05EB002420460F
:1036D00004F08EFA82464FF08E41504604F028FBEB
:1036E00005D24FF08F41504604F084F882461749C6
:1036F000504604F0B7F8834604F0E1FA8046144AD5
:10370000144B04F0EDF806460022134B04F08FF939
:10371000044604F0E7FA8246504604F084FABDE815
:10372000F09F00002401002020010020280100203B
:1037300066A64C40900000201C0100209400002050
:10374000980000200C010020D80000200000AA43AF
:10375000A4703D0AD74342400000244038B50446D7
:10376000FB4890F82400C0B114B10220009001E0A1
:1037700000200090F64A1268D17BF54A5268107812
:103780006B460122FFF7E8F910B14FF0FF3038BD6A
:103790009DF80010EE48417423E0ED48807A10B99E
:1037A0004FF0FF30F3E724B1E948407C08B1002036
:1037B000EDE714B10120009001E000200090E44A00
:1037C0001268D17BE24A526810786B460122FFF7FB
:1037D000C3F910B14FF0FF30D9E79DF80010DC4875
:1037E00041740020D3E738B5002419E0D8480068B8
:1037F000C07AA04204D0D6480068407DA04200D1E3
:103800000CE0D349496808786B4601222146FFF74E
:1038100005FA10B14FF0FF3038BD00BF601CC4B2D4
:10382000CB4840680079A042E0DC0020F4E770B5A6
:1038300004460D46C6480068C07AA04204D0C44879
:103840000068407DA04202D14FF0FF3070BDC048FB
:1038500040680079A04202DC4FF0FF30F6E7BC4937
:10386000496808782B4601222146FFF7D7F9EDE792
:1038700038B50446B64890F82300A04201D1002094
:1038800038BD14B13020009001E000200090B04815
:10389000807C20B19DF8000040F002000090AC4810
:1038A00090F8220020B19DF8000040F080000090C8
:1038B000A74A1268117DA64A526810786B46012209
:1038C000FFF74AF910B14FF0FF30D9E7A04880F870
:1038D00023400020D4E738B5044604F0700010B14E
:1038E0000120009005E014B10020009001E040208C
:1038F0000090974A1268917C954A526810786B46FE
:103900000122FFF729F920B1002191488172481E58
:1039100038BD9DF8000020F040018D480173002063
:10392000009004F0400020B99DF8000040F0040031
:10393000009004F0200020B99DF8000040F0020043
:10394000009004F0100020B99DF8000040F0010044
:10395000009004F0080020B99DF8000040F0380005
:1039600000907B4A1268D17C794A526810786B4685
:103970000122FFF7F1F820B1002175488172481E3D
:10398000C6E724B1082C02D00020FFF771FF704871
:10399000847200210175322003F0E3FD0020B7E7B7
:1039A00038B504466A48807CA04201D1002038BD69
:1039B000002C46D0664A12681179654A5268107820
:1039C0006B460122FFF72AF910B14FF0FF30EEE706
:1039D0009DF8000020F0200000905D4A12681179E7
:1039E0005B4A526810786B460122FFF7B5F810B1B8
:1039F0004FF0FF30DBE7032003F0B3FD022000901F
:103A0000534890F8220020B19DF8000040F080005B
:103A100000904F4890F8230020B19DF8000040F03E
:103A2000300000904A4A1268117D494A5268107865
:103A30006B460122FFF790F8002851D04FF0FF307D
:103A4000B5E7434A12681179414A526810786B46CB
:103A50000122FFF7E3F810B14FF0FF30A7E73C4831
:103A6000807A00F0010028B19DF8000040F02000AD
:103A7000009004E09DF8000020F020000090344AFF
:103A800012681179324A526810786B460122FFF7AA
:103A900063F810B14FF0FF3089E7032003F061FDB8
:103AA0002B4890F8220010B18020009001E0002007
:103AB0000090274890F8230020B19DF8000040F0C6
:103AC00030000090224A1268117D214A5268107815
:103AD0006B460122FFF740F810B14FF0FF3066E768
:103AE0001B488474002062E708B51948807A10B931
:103AF0004FF0FF3008BD00200090154A1268D17BBE
:103B0000134A526810786B460122FFF725F810B16E
:103B10004FF0FF30EEE70E4A126851790C4A5268B6
:103B200010786B460122FFF717F810B14FF0FF3005
:103B3000E0E7074A12681179054A526810786B4627
:103B40000122FFF709F828B14FF0FF30D2E700005B
:103B50003C010020F74890F82400002850D00C20A9
:103B60000090F44A12681179F24A526810786B4654
:103B70000122FEF7F1FF10B14FF0FF30BAE7C0208D
:103B80000090EC48807A00F0010020B19DF8000020
:103B900040F020000090E74A12681179E54A526827
:103BA00010786B460122FEF7D7FF10B14FF0FF30BF
:103BB000A0E7E048407C10B10220009001E0002026
:103BC0000090DC4A1268D17BDA4A526810786B4662
:103BD0000122FEF7C1FF10B14FF0FF308AE700204D
:103BE0000090D44A12685179D24A526810786B46D4
:103BF0000122FEF7B1FF002852D04FF0FF3079E7E5
:103C000004200090CB4A12681179CA4A5268107891
:103C10006B460122FEF7A0FF10B14FF0FF3069E7BD
:103C2000C448807C20B9C348807A00F0010010B9F4
:103C30004020009001E060200090BE4A1268117997
:103C4000BC4A526810786B460122FEF785FF10B11E
:103C50004FF0FF304EE7B748407C10B10120009094
:103C600001E000200090B34A1268D17BB14A52684B
:103C700010786B460122FEF76FFF10B14FF0FF3056
:103C800038E7AC4A12685179AA4A52681078A94BB1
:103C900010330122FEF760FF10B14FF0FF3029E72B
:103CA000002027E770B50446002624F00104A1484F
:103CB00090F8240008B1002070BD9E48807A10B9A9
:103CC0004FF0FF30F8E79B48057C807A2040994907
:103CD00008740846007CA04202D04FF0FF3600E096
:103CE000002614B99348007D18B10120FFF736FD76
:103CF00002E00020FFF732FD3CB1FFF7F5FE20B1F6
:103D00008C4805744FF0FF30D6E73046D4E738B51D
:103D100004468848807A10B94FF0FF3038BDBC2C7B
:103D200002DB0120009015E0622C02DB02200090F3
:103D300010E02A2C02DB032000900BE0142C02DBA5
:103D40000420009006E00A2C02DB0520009001E030
:103D5000062000907748C07A9DF80010884201D173
:103D60000020DBE7734A12689178724A5268107833
:103D70006B460122FEF7F0FE10B14FF0FF30CDE7A9
:103D80009DF800106B48C1720020C7E738B50446A3
:103D9000282C02DD4FF0FF3038BDDCB90020FFF7E2
:103DA00067FD00208DF8000007208DF80100614AB2
:103DB0001268917C5F4A526810786B460222FEF7C7
:103DC000CBFE10B14FF0FF30E6E7002159480175F6
:103DD0000020E1E70120FFF74BFD20208DF80000D7
:103DE000012C06D100208DF801000520FFF78FFF80
:103DF00017E0052C06DC01208DF801000520FFF7F7
:103E000086FF0EE0142C06DC02208DF801000A204B
:103E1000FFF77DFF05E003208DF801001420FFF778
:103E200076FF9DF80100072101EB8010C0B28DF8EC
:103E30000100404A1268917C3E4A526810786B46F5
:103E40000222FEF789FE10B14FF0FF30A4E70821EF
:103E50003848817200210173012101750020FFF7AC
:103E600021FF002098E738B504463248807A10B91F
:103E70004FF0FF3038BD2F4890F8240010B14FF0BC
:103E8000FF30F7E72B48007D50B134B1282C04DC1B
:103E9000E0B2FFF77BFF0020ECE70020FFF776FFA2
:103EA000042C01DA042404E0B4F57A7F01DD4FF438
:103EB0007A744FF47A7090FBF4F0401EC0B2009018
:103EC0001C4A126851781B4A526810786B460122CE
:103ED000FEF742FE10B14FF0FF30CBE79DF8000037
:103EE000401C4FF47A7191FBF0F081B21148C1810E
:103EF0000146C9894810FFF70AFF0020BAE738B524
:103F000004460C48807A10B94FF0FF3038BD022CBF
:103F100006D0042C07D0082C08D0102C0FD10BE0B1
:103F2000002000900EE0082000900BE01020009090
:103F300008E000003C0100201820009002E04FF053
:103F4000FF30E3E700BFF948407A9DF80010B0EB7E
:103F5000E10F01D10020D9E7F44A1268D179F34A80
:103F6000526810786B460122FEF7F6FD10B14FF053
:103F7000FF30CBE79DF80000C110EC4841720020F3
:103F8000C4E738B50446E948807A10B94FF0FF30ED
:103F900038BDFA2C09D0B4F5FA7F09D0B4F57A7F90
:103FA00009D0B4F5FA6F0CD108E0002000900BE0C6
:103FB0000820009008E01020009005E018200090F4
:103FC00002E04FF0FF30E3E700BFD848007A9DF8E9
:103FD0000010B0EBE10F01D10020D9E7D34A1268FD
:103FE0009179D24A526810786B460122FEF7B4FDEF
:103FF00010B14FF0FF30CBE79DF80000C010CB4967
:1040000008720020C4E71CB580208DF80000C74A64
:104010001268917CC54A526810786B460122FEF7FF
:104020009BFD10B14FF0FF301CBD642003F099FAE6
:1040300000208DF80000BD4A1268917CBB4A52688E
:1040400010786B460122FEF787FD10B14FF0FF306C
:10405000EAE7B64A1268917DB44A526810786B4616
:104060000622FEF7DBFD10B14FF0FF30DCE79DF8D4
:104070000500C007400F9DF8031001F0010140EA60
:1040800041009DF8011001F0010140EA010494B1E2
:10409000012C03D10121A548C17431E0022C03D1C8
:1040A0000021A248C1742BE02146A1A004F014F81D
:1040B0004FF0FF30B8E79D4A1268D1789B4A5268AA
:1040C00010786B460122FEF7A9FD10B14FF0FF30CA
:1040D000AAE79DF8000000F00F042CB99E4803F0F9
:1040E000FBFF4FF0FF309FE7042C06D19BA003F0AD
:1040F000F3FF01218D48C17402E000218B48C17497
:10410000FF218A488172FF2088490872FF21874871
:104110004172C1724FF6FF71C181FF210174817438
:104120000121017380F82210002180F823104175CD
:1041300001751630016041608160163880F82410E6
:1041400080F82510C1844FF4FA60FFF71AFF10B110
:104150004FF0FF3068E70220FFF7D1FE10B14FF0BB
:10416000FF3061E72A20FFF7D2FD10B14FF0FF309A
:104170005AE73220FFF777FE10B14FF0FF3053E7D8
:104180000020FFF78FFD10B14FF0FF304CE700200B
:10419000FFF706FC10B14FF0FF3045E70020FFF7B6
:1041A0009AFB002040E770477CB504460D465F4807
:1041B000807A00F0700010B94FF0FF307CBD5B4A90
:1041C0001268117B594A526810786B460622FEF736
:1041D00025FD10B14FF0FF30F0E79DF801009DF88C
:1041E000001040EA012000B220809DF803009DF8F5
:1041F000021040EA012000B260809DF805009DF8A1
:10420000041040EA012000B2A08015B12846FFF753
:10421000CAFF0020D2E77CB504460D464348807AA9
:1042200000F0080010B94FF0FF307CBD3F4A126823
:10423000517B3E4A526810786B460622FEF7EEFC30
:1042400010B14FF0FF30F0E79DF801009DF800102D
:1042500040EA012000B220809DF803009DF8021082
:1042600040EA012000B260809DF805009DF804102E
:1042700040EA012000B2A08015B12846FFF793FF65
:104280000020D2E72DE9FE4F05460C462748807AEC
:1042900018B94FF0FF30BDE8FE8F244A1268917BB9
:1042A000224A5268107802AB0222FEF7B7FC10B126
:1042B0004FF0FF30EFE79DF809009DF8081040EA45
:1042C000012006B214B12046FFF76DFF1749496877
:1042D000C88803F096FC154901904968B1F90800B7
:1042E00003F086FC8346304603F082FC594600907A
:1042F00003F080FA8246019903F0B4FA81461F491F
:1043000003F026FA80464FF08F4103F079FA074612
:1043100003F089FC28600020BDE710B588B0044692
:104320001CB94FF0FF3008B010BD29E03C0100205F
:10433000556E737570706F7274656420736F6674F8
:10434000776172652070726F647563742072657630
:104350002025642E0A0000004098000848616C6621
:104360002073656E736974697669747920706172FF
:104370007420666F756E642E0D0A000000000C42FA
:10438000206830B9606820B9A06810B9002008B072
:1043900010BDFA494968087806AB03221146FEF7BA
:1043A0003DFC10B14FF0FF30F1E79DF818000821F7
:1043B00001EB201000F00F00ADF800009DF819008F
:1043C00001EB201000F00F00ADF802009DF81A007C
:1043D00001EB201000F00F00ADF804002068410050
:1043E000BDF90000403091FBF0F000B2ADF81000D4
:1043F00060684100BDF90200403091FBF0F000B26E
:10440000ADF81200A0684100BDF90400403091FBF6
:10441000F0F000B2ADF81400D8494968087806AB4E
:1044200006221146FEF7FAFB10B14FF0FF30AEE75F
:104430009DF819009DF8181040EA012000B2ADF86F
:1044400008009DF81B009DF81A1040EA012000B2F8
:10445000ADF80A009DF81D009DF81C1040EA0120EF
:1044600000B2ADF80C00BDF81000BDF8081008440B
:1044700000B2ADF81000BDF81200BDF80A100844F3
:1044800000B2ADF81200BDF81400BDF80C100844DD
:1044900000B2ADF81400BDF81000000A8DF8180045
:1044A000BDF81000C0B28DF81900BDF81200000A66
:1044B0008DF81A00BDF81200C0B28DF81B00BDF8CF
:1044C0001400000A8DF81C00BDF81400C0B28DF86D
:1044D0001D00AA494968087806AB06221146FEF776
:1044E0003BFB10B14FF0FF3051E700204FE7014692
:1044F000A248007A30B1012807D0022809D0032849
:104500000FD10AE0FA2008800EE04FF4FA7008801C
:104510000AE04FF47A70088006E04FF4FA600880F1
:1045200002E00020088000BF00BF00207047014665
:104530009248407A30B1012807D0022808D00328D9
:104540000CD108E0022008700BE00420087008E09D
:104550000820087005E01020087002E04FF0FF30DE
:10456000704700BF8548C07C18B108784006000E2F
:1045700008700020F4E701468048C07A082817D266
:10458000DFE800F01704070A0D101318BC2008809C
:1045900013E06220088010E02A2008800DE014203B
:1045A00008800AE00A20088007E00520088004E06F
:1045B00000BF00BF0020088000BF00BF0020704780
:1045C00001466E4890F8240010B14FF0FF3070475C
:1045D0006A48C08908800020F9E701460020088069
:1045E000401E704701464FF0FF3070470146634858
:1045F000007A30B1012807D0022808D003280CD156
:1046000008E05F4808600BE05E48086008E05E482C
:10461000086005E05D48086002E04FF0FF30704739
:1046200000BF0020FBE701465448407A30B1012822
:1046300008D002280AD0032810D10BE04FF48040A4
:1046400008800EE041F69C7008800AE04FF480502C
:10465000088006E04FF40060088002E04FF0FF3071
:10466000704700BF4548C07C10B1088840100880E2
:104670000020F5E701464148007C087000207047A3
:1046800001463E48807A10B10120087001E0002008
:1046900008700020704738B504463848807A10B951
:1046A0004FF0FF3038BD354A1268117C334A5268EA
:1046B00010786B460222FEF7B1FA10B14FF0FF30CE
:1046C000F0E79DF801009DF8001040EA012000B2DB
:1046D00020800020E6E72DE9FE4F074688469246F7
:1046E0001D46DDF830B000260024244890F8240050
:1046F00010B1601EBDE8FE8F002028701F48807A30
:1047000010B94FF0FF30F5E71C48007C10B94FF0AE
:10471000FF30EFE71948007C00F0400008B1B01C02
:10472000C6B21648007C00F0200008B1B01CC6B22A
:104730001248007C00F0100008B1B01CC6B20F484F
:10474000007C00F0080008B1B01DC6B20B4A126828
:10475000917A0A4A526810786B460222FEF75EFA96
:1047600010B14FF0FF30C5E79DF801009DF8001033
:1047700040EA0129B1450BDA0020BBE73C010020EB
:104780000000034300008342333303423333834149
:10479000FC4840684088B9EB600F17DDF94A1268A1
:1047A000517CF84A526810786B460122FEF736FABF
:1047B00010B14FF0FF309DE79DF8000000F01000B1
:1047C00020B1FFF791F96FF0010093E75046FFF732
:1047D000EAFCEC4A1268D17AEA4A526810786B46D1
:1047E0003246FEF71BFA10B14FF0FF3082E799FB1B
:1047F000F6F0401E8BF8000000202870B4422AD04A
:10480000E048007C00F0080028B3601C1DF80000A0
:104810001DF8041040EA012000B2A8F80000E01CD6
:104820001DF80010A01C1DF8000041EA002000B295
:10483000A8F80200601D1DF80010201D1DF80000E2
:1048400041EA002000B2A8F80400287840F00800EF
:104850002870A01D84B2B44213D0CA48007C00F076
:10486000400070B1601C1DF800001DF8041040EA03
:10487000012000B23880287840F040002870A01C49
:1048800084B2B44213D0BF48007C00F0200070B165
:10489000601C1DF800001DF8041040EA012000B261
:1048A0007880287840F020002870A01C84B2B442A0
:1048B00013D0B448007C00F0100070B1601C1DF8EB
:1048C00000001DF8041040EA012000B2B8802878EA
:1048D00040F010002870A01C84B200200AE7F8B550
:1048E00004460F461646A74890F8240010B94FF02A
:1048F000FF30F8BDA348807A10B94FF0FF30F8E7D9
:10490000A04A1268917A9F4A526810786B46022238
:10491000FEF784F910B14FF0FF30EAE79DF801008F
:104920009DF8001040EA0125A54203DA002030700E
:10493000401EDEE7934840684088B5EB600F17DD06
:10494000904A1268517C8F4A526810786B46012257
:10495000FEF764F910B14FF0FF30CAE79DF8000090
:1049600000F0100020B1FFF7BFF86FF00100C0E7C2
:10497000E2B2844B1B68D97A824B5B6818783B465D
:10498000FEF74CF910B14FF0FF30B2E795FBF4F0B1
:10499000401E30700020ACE701467A4880F82210B3
:1049A000002070477CB5054676494968087801AB18
:1049B00004220D21FEF732F908B107207CBD9DF8D5
:1049C0000700C0F301109DF8041001F0E00140EA77
:1049D000E1008DF800009DF80700C0F381009DF80C
:1049E000051001F0E00140EAE1008DF801009DF8BA
:1049F000070000F003009DF8061001F0E00140EA16
:104A0000E1008DF8020000241CE01DF8040018B934
:104A1000002045F8240013E05B4845F8240006E038
:104A200055F82400594902F0EBFE45F824001DF822
:104A30000400401EC0B20DF804000028F0D100BFF1
:104A4000601CC4B2032CE0DB0020B7E72DE9FE4F69
:104A500006460F4600256846FFF7A4FF002442E003
:104A600056F8240057F82410A0EB010ABAF1000F01
:104A700001DB514601E0CAF10001084603F0B8F835
:104A800083464FF08F4102F0EDFE80465DF8240032
:104A9000002103F043F916D05DF82410404602F0DF
:104AA000E1FE82464FF07E5102F0A4FE814629F0DD
:104AB000004A3748416A504603F03AF912D20120C1
:104AC000A04005430EE03248C169404603F026F994
:104AD00005D32F48016A404603F02AF902D201208B
:104AE000A0400543641C032CBADB2846BDE8FE8FBA
:104AF0002DE9FC5F06460F460025224949680878E3
:104B000001AB03220D21FEF789F810B10720BDE8A3
:104B1000FC9F9DF8040000F01F008DF804009DF834
:104B2000050000F01F008DF805009DF8060000F05C
:104B30001F008DF80600002462E056F8240057F8A4
:104B40002410A0EB010BBBF1000F01DB594601E083
:104B5000CBF10001084603F04BF84FF08F41009075
:104B600002F080FE814601A8005DC0B308490868D4
:104B700003F047F883465946064802F073FE804624
:104B80000FE000003C0100207B14AE3E1D5A843F24
:104B9000308B000800B04C45FE49404602F030FE24
:104BA000804601A8005D401EC0B201A9085500283A
:104BB000F2D14146484602F055FE83464FF07E5101
:104BC00002F018FE82462AF0004BF34881695846ED
:104BD00003F0AEF813D20120A04005430FE0FFE739
:104BE000ED480169484603F099F805D3EA48416960
:104BF000484603F09DF802D20120A0400543641C02
:104C0000032C9ADB284682E72DE9F04F87B0054652
:104C10000C46914601208DF8100000208DF81100FF
:104C2000DE4A1268917CDD4A5268107804AB022299
:104C3000FDF792FF20B14FF0FF3007B0BDE8F08FD5
:104C4000C82002F08EFC00208DF81000D34A1268B4
:104C5000D17BD24A5268107804AB0122FDF77CFF69
:104C600010B14FF0FF30E8E7CC4A12685179CB4AD7
:104C70005268107804AB0122FDF76EFF10B14FF0BF
:104C8000FF30DAE7C54A1268917CC44A526810784E
:104C900004AB0122FDF760FF10B14FF0FF30CCE70D
:104CA000BE4A1268D17DBD4A5268107804AB012219
:104CB000FDF752FF10B14FF0FF30BEE7B74A126860
:104CC0001179B64A5268107804AB0122FDF744FF0F
:104CD00010B14FF0FF30B0E70C208DF81000AF4A54
:104CE00012681179AD4A5268107804AB0122FDF7C1
:104CF00033FF10B14FF0FF309FE70F2002F031FC7F
:104D0000A648806A407A8DF81000A44A126891780B
:104D1000A24A5268107804AB0122FDF71DFF10B1C2
:104D20004FF0FF3089E79D48806A007A8DF81000C7
:104D30009A4A12685178994A5268107804AB012255
:104D4000FDF70AFF10B14FF0FF3076E7B9F1000F21
:104D500007D09248806A807A40F0E0008DF8100019
:104D600004E08E48806A807A8DF810008B4A1268C1
:104D700091798A4A5268107804AB0122FDF7ECFE63
:104D800010B14FF0FF3058E7B9F1000F07D083485A
:104D9000806AC07A40F0E0008DF8100003E07E48A1
:104DA000C07A8DF810007D4A1268D1797B4A52682A
:104DB000107804AB0122FDF7CFFE10B14FF0FF30A9
:104DC0003BE7B9F1000F02D0C82002F0CAFB402037
:104DD0008DF81000714A12681179704A5268107883
:104DE00004AB0122FDF7B8FE10B14FF0FF3024E70D
:104DF00078208DF81000694A12685179674A526824
:104E0000107804AB0122FDF7A7FE10B14FF0FF3080
:104E100013E76149888902F0A4FB00208DF8100097
:104E20005E4A126851795D4A5268107804AB0122DB
:104E3000FDF792FE10B14FF0FF30FEE6574A1268C0
:104E4000917A564A5268107804AB0222FDF7E6FECA
:104E500010B14FF0FF30F0E69DF811009DF81010F2
:104E600040EA012B0C209BFBF0F0C6B20020A860AA
:104E700068602860A06060602060824665E0474A04
:104E80001268D17A454A5268107804AB0C22FDF7BB
:104E9000C5FE10B14FF0FF30CFE69DF811009DF830
:104EA000101040EA012000B2ADF808009DF8130090
:104EB0009DF8121040EA012000B2ADF80A009DF8FA
:104EC00015009DF8141040EA012000B2ADF80C0066
:104ED000BDF90810206808442060BDF90A10606818
:104EE00008446060BDF90C10A0680844A0609DF8FB
:104EF00017009DF8161040EA012000B2ADF800003E
:104F00009DF819009DF8181040EA012000B2ADF894
:104F100002009DF81B009DF81A1040EA012000B223
:104F2000ADF80400BDF90010286808442860BDF9F8
:104F30000210686808446860BDF90410A868084455
:104F4000A8600AF1010000F0FF0AB24597DB1248A1
:104F5000D0F800C02868C117090441EA10410704CD
:104F600062460023384602F0A3FB32460023CDE917
:104F7000020102F09DFB28600748D0F800C0686875
:104F8000C117090441EA104107046246002338466C
:104F900006E0000054E3853F308B00083C01002010
:104FA00002F086FB32460023CDE9020102F080FBCD
:104FB0006860FE48D0F800C0A868C117090441EA3B
:104FC0001041070462460023384602F071FB324666
:104FD0000023CDE9020102F06BFBA860F348D0F892
:104FE00004C02068C117090441EA10410704624661
:104FF0000023384602F05CFB32460023CDE9020173
:1050000002F056FB2060E948D0F804C06068C11780
:10501000090441EA1041070462460023384602F0C1
:1050200047FB32460023CDE9020102F041FB6060FC
:10503000DE48D0F804C0A068C117090441EA104155
:10504000070462460023384602F032FB3246002352
:10505000CDE9020102F02CFBA060A068002804DD6D
:10506000A068A0F58030A06003E0A06800F5803063
:10507000A0600020E1E538B50446CD4890F8240052
:10508000A04201D1002038BD24B3C94890F82500C2
:1050900010B94FF0FF30F6E70020FEF75FFB00206D
:1050A000FEF77EFCC249C88CFEF7DDFE00200090B2
:1050B000BF49496808786B4601222321FDF74CFD62
:1050C0000121BB4880F824100120FEF747FBFEF7C2
:1050D0000BFD13E00020FEF741FBB548007C00907B
:1050E000B349496808786B4601222321FDF734FD56
:1050F0000021AF4880F82410FEF7F6FC0020C2E73C
:105100002DE9F04F8DB083460F4602200C90A84841
:1051100090F8240020B10020FFF7ADFF012600E049
:10512000002603A8FFF7E3F905A8FFF700FA01A896
:10513000FFF721FA02A8FFF743FA9D4890F80AA06A
:1051400004A8FFF797FA002407E0002239465846E2
:10515000FFF75AFD00B902E0641C022CF5DB00BF2A
:10516000022C01D1002528E0002407E0012206A935
:1051700009A8FFF749FD00B902E0641C022CF5DB29
:1051800000BF022C01D1002517E006A93846FFF721
:105190005DFC00F0FF0809A95846FFF7A9FC00F0E4
:1051A000FF090025B9F1000F01D145F00105B8F163
:1051B000000F01D145F0020500BFFF207C490872B5
:1051C000FF217B484172C1724FF6FF71C181FF21FF
:1051D0008172017401210173BDF80C00FEF7D1FE4C
:1051E0009DF81400FEF78BFEBDF80400FEF78FFD5E
:1051F000BDF80800FEF737FE5046FEF76CFB9DF841
:105200001000FEF74FFD16B10120FFF734FF2846CE
:105210000DB0BDE8F08FF8B504460D46164616B938
:105220004FF0FF30F8BD6248807A10B94FF0FF3080
:10523000F8E720128DF80000E0B28DF801009DF82B
:10524000010028445A4949684989884202DD4FF0E3
:10525000FF30E7E7564A1268117E554A52681078C7
:105260006B460222FDF778FC10B14FF0FF30D9E712
:10527000EAB24F4B1B68597D4D4B5B68187833463B
:10528000FDF76AFC10B14FF0FF30CBE70020C9E713
:10529000F8B504460D46164616B94FF0FF30F8BD76
:1052A0004348807A10B94FF0FF30F8E720128DF8AC
:1052B0000000E0B28DF801009DF8010028443C494F
:1052C00049684989884202DD4FF0FF30E7E7384AF4
:1052D0001268117E364A526810786B460222FDF73A
:1052E0003BFC10B14FF0FF30D9E7EAB2304B1B68FE
:1052F000597D2F4B5B6818783346FDF78FFC10B152
:105300004FF0FF30CBE70020C9E72DE9F04385B02F
:1053100005460E4690469946254890F8250020B14E
:105320004FF0FF3005B0BDE8F08316B94FF0FF3005
:10533000F8E7002423E0281B102801DD102000E0FE
:10534000281B87B2321939462046FFF764FF10B197
:105350004FF0FF30E6E701AA39462046FFF798FFF5
:1053600010B14FF0FF30DDE730193A4601A902F0E5
:10537000E2F910B16FF00100D4E7E01984B2AC4259
:10538000D9DB4FEA28208DF8000008F0FF008DF8E7
:105390000100074A1268917E054A526810786B46F0
:1053A0000222FDF7D9FB40B104E00000308B000879
:1053B0003C0100204FF0FF30B4E701218A4880F81B
:1053C0002510A0F826900020ACE70146864890F80A
:1053D000240008700020704702464FF0FF307047ED
:1053E00001464FF0FF307047F8B505460F461446AA
:1053F000002C70D0B5F5FF5F01DDFF2605E0202D04
:1054000001DA012601E0C5F3471607B90127282C68
:1054100002DD4FF0FF30F8BD7348407D28BB724875
:1054200090F8240038B10020FFF725FE01216E48D6
:1054300080F8201003E000216B4880F820106A48B3
:105440001630FFF754F868481830FFF770F86648D0
:105450001A30FFF790F864481C30FFF7B1F8624843
:10546000817A81771F30FFF705F90020FEF776F982
:105470000020FEF78BFC00208DF800005A4A1268CD
:105480009178594A526810786B460122FDF764FB07
:1054900010B14FF0FF30BEE740208DF80000524AB7
:1054A0001268D17B504A526810786B460122FDF792
:1054B00053FB00B165E08DF800608DF801704A4A39
:1054C0001268117A484A526810786B460222FDF73A
:1054D00043FB08B155E047E0052002F042F842489E
:1054E000407A072101EBC000C0B28DF800003E4AAF
:1054F0001268D1793C4A526810786B460122FDF758
:105500002BFB00B13DE020208DF80000012C03D1E1
:1055100000208DF801000EE0052C03DC01208DF841
:10552000010008E0142C03DC02208DF8010002E0E9
:1055300003208DF801009DF80100072101EB801088
:10554000C0B28DF80100284A1268917C264A526840
:1055500010786B460222FDF7FFFA00B111E001213D
:1055600021484175002056E71F4A1632002103E00A
:10557000505C00B105E0491C0C29F9D34FF0FF3015
:1055800049E7FF2018490872FF2117484172C1728C
:105590004FF6FF71C181FF218172017401210173F6
:1055A0000146887FFEF797F90F49C88AFEF7E9FCA4
:1055B0000D49087EFEF7A3FC0B49488BFEF7A7FBBD
:1055C0000949888BFEF74FFC0749C87FFEF76AFB45
:1055D000054890F8200010B10120FFF74CFD002194
:1055E00001484175002016E73C01002010B5C82392
:1055F0004FF48062F74940F6F630FFF786FE10BDA3
:1056000010B586B00446F4A000680390F3A00068CB
:105610000290F3A000680190F2A00068009004F0EE
:10562000030003A9085C8DF8140003A8C4F3C101AA
:10563000405C8DF8150003A8C4F38111405C8DF81F
:10564000160004F0030002A9085C8DF8100002A8FF
:10565000C4F3C101405C8DF8110002A8C4F38111AC
:10566000405C8DF8120005AA032140F22640FFF7A6
:10567000D2FD18B14FF0FF3006B010BD04AA0321CF
:1056800040F22A40FFF7C7FD10B14FF0FF30F3E7BB
:10569000019805900098049004F0040058B19DF81A
:1056A000140040F001008DF814009DF8100040F047
:1056B00001008DF8100004F0200058B19DF815008D
:1056C00040F001008DF815009DF8110040F0010038
:1056D0008DF8110004F4807058B19DF8160040F068
:1056E00001008DF816009DF8120040F001008DF8C1
:1056F000120005AA03214FF48860FFF78CFD10B15A
:105700004FF0FF30B8E704AA032140F23140FFF721
:1057100082FD10B14FF0FF30AEE7B34804810020A6
:10572000AAE71FB50446B048007A00F0030054F819
:1057300020000190AC48007A00F0040010B10198FC
:1057400040420190A848007AC0F3C10054F82000FC
:105750000290A548007A00F0200010B10298404263
:105760000290A148007AC0F3811054F82000039001
:105770009D48008900F4807010B103984042039066
:105780009A49019880FB0101800F40EA8100019055
:105790009649029880FB0110820042EA91700290C3
:1057A0009249039880FB0110820042EA91700390B5
:1057B0000198000E8DF800000198000C8DF8010092
:1057C0000198000A8DF802000198C0B28DF803001C
:1057D0006A4604214FF47470FFF71DFD18B14FF0B5
:1057E000FF3004B010BD0298000E8DF80000029842
:1057F000000C8DF801000298000A8DF80200029852
:10580000C0B28DF803006A4604214FF47570FFF7AB
:1058100002FD10B14FF0FF30E3E70398000E8DF862
:1058200000000398000C8DF801000398000A8DF821
:1058300002000398C0B28DF803006A4604214FF4B9
:105840007670FFF7E8FCCCE770B588B0064601A893
:10585000FEF7E9FEBDF804000021C90341EA504506
:10586000C4036148007A00F0030056F82000059058
:105870005D48007A00F0040010B1059840420590A0
:105880005948007AC0F3C10056F8200006905648E7
:10589000007A00F0200010B106984042069052486D
:1058A000007AC0F3811056F8200007904E48008916
:1058B00000F4807010B10798404207900598C11716
:1058C000A0FB042301FB043100FB0510810041EA29
:1058D000927005900698C117A0FB042301FB0431C8
:1058E00000FB0510810041EA927006900798C117ED
:1058F000A0FB042301FB043100FB0510810041EAF9
:10590000927007900598000E8DF808000598000C1D
:105910008DF809000598000A8DF80A000598C0B2B4
:105920008DF80B000698000E8DF80C000698000C00
:105930008DF80D000698000A8DF80E000698C0B28A
:105940008DF80F000798000E8DF810000798000CD6
:105950008DF811000798000A8DF812000798C0B260
:105960008DF8130002AA0C214FF42570FFF753FCA9
:1059700008B070BD30B585B004461DA207CA02ABA1
:1059800007C3C82C03DD4FF0FF3005B030BDC82081
:1059900090FBF4F0401E85B2280A8DF80000E8B2B2
:1059A0008DF801006A46022140F21620FFF733FC11
:1059B00010B14FF0FF30E8E702AA0C2140F6C120F9
:1059C000FFF729FC10B14FF0FF30DEE70648848175
:1059D0000020DAE7588B00084CCD6C000CC92C0075
:1059E00036567600264666008402002009E3CA0285
:1059F000FEF2ABC4AAF1DFDFBBAFDFDF0146FC483C
:105A000080890880002070472DE9FC4706460F4634
:105A100006F0070010B1B7F5C86F03DD4FF0FF3097
:105A2000BDE8FC87384602F0ECF88146F14901F008
:105A300019FF80466846FEF77AFD9DF800000228AF
:105A400006D0042816D0082826D0102848D135E0E2
:105A50004FF08D41404601F0D3FE814602F0FCF844
:105A600084B2E549404601F0CBFE814602F0F4F8ED
:105A700085B238E04FF08C41404601F0C1FE8146CE
:105A800002F0EAF884B2DD49404601F0B9FE8146F1
:105A900002F0E2F885B226E04FF08B41404601F07B
:105AA000AFFE814602F0D8F884B2D549404601F0F5
:105AB000A7FE814602F0D0F885B214E04FF08A418B
:105AC000404601F09DFE814602F0C6F884B2CD4901
:105AD000404601F095FE814602F0BEF885B202E034
